:100000000C945C000C9484000C9484000C94840088
:100010000C9484000C9484000C9484000C94840050
:100020000C9484000C9484000C9484000C94840040
:100030000C9484000C9484000C9484000C94840030
:100040000C94FD000C9484000C9437030C945D0315
:100050000C9484000C9484000C9484000C94840010
:100060000C9484000C9484000C9484000C94840000
:100070000C9484000C9484000C9484000C948400F0
:100080000C9484000C9484000C9484000C948400E0
:100090000C9484000C9484000C9484000C948400D0
:1000A0000C9484000C9484000C9484000C948400C0
:1000B0000C94840083038A0311241FBECFEFD8E081
:1000C000DEBFCDBF11E0A0E0B1E0E0E0FEE002C0A5
:1000D00005900D92A232B107D9F723E0A2E2B1E078
:1000E00001C01D92A933B207E1F710E0CBE5D0E0E3
:1000F00004C02197FE010E94ED06CA35D107C9F759
:100100000E9436040C94F3060C940000FC0120813C
:10011000211114C021E02083F89481E0882369F044
:1001200085B58A7F85BD85B5826085BDEEE6F0E048
:1001300080818160808380E0F1CF78940895FC0114
:100140008FB7F89491E0992331F041815281638116
:10015000748190E0F8CF8FBFCB01BA0108950E945F
:100160009F0028EE33E040E050E00E94BC06CA0148
:10017000B90108950E94AF0028EE33E040E050E05E
:100180000E94BC06CA01B90108958F929F92AF9256
:10019000BF92CF92DF92EF92FF92CF93DF93EC0169
:1001A0004A015B010E94BA006B017C01CE010E94F2
:1001B000BA00DC01CB018C199D09AE09BF09881575
:1001C0009905AA05BB0590F3DF91CF91FF90EF90C1
:1001D000DF90CF90BF90AF909F908F900895FC01DB
:1001E000418152816381748140585F4F6F4F7F4FCF
:1001F000418352836383748308951F920F920FB6D5
:100200000F9211242F933F934F935F936F937F939C
:100210008F939F93AF93BF93EF93FF9382E291E00D
:100220000E94EF00FF91EF91BF91AF919F918F914D
:100230007F916F915F914F913F912F910F900FBEE2
:100240000F901F901895CF92DF92EF92FF920F932D
:100250001F93FC0172836183548343833683258318
:1002600010870783F286E186D486C3861F910F919B
:10027000FF90EF90DF90CF900895FC0112821182E1
:1002800014821382168215821086178212861186B6
:100290001486138608950F931F93CF93DF93FC0169
:1002A000208121113CC0EC0181E08083CB01BA01A7
:1002B0000E94740520E030E040E851E40E9402060C
:1002C0009B01AC0160E074E284E79BE40E94D304EC
:1002D00020E030E040E85FE30E9466040E946F0681
:1002E0000E944505062F172F82E291E00E948600AA
:1002F000F89481E0882391F0E981FA811083EB8101
:10030000FC810083E985FA85808186608083EF81A6
:10031000F88580818869808380E0ECCF7894DF91D4
:10032000CF911F910F910895CF93DF93DC01FC01D2
:10033000E15FFD4F80818F5FFD01E05FFD4F9081A8
:100340008917D1F3ED01C15FDD4F9881FD01E90F00
:10035000F11DE35FFE4F608388831796ED91FC915A
:100360001897808180628083DF91CF9108950E94E9
:10037000940108956AE00E94B70108950F931F93B6
:10038000CF93DF938C01EB016881662329F02196DE
:10039000C8010E94B701F8CFDF91CF911F910F9153
:1003A00008950F931F93CF93DF938C01EB0160317E
:1003B00027E2720778F19B01329522952F7023274F
:1003C0003F702327A7E4B3E00E94DE06AC015695F8
:1003D000479556954795569547959A01ADECBCECD7
:1003E0000E94DE06969587959695879596958795B2
:1003F000BC01660F771F880F991F880F991F880F00
:10040000991F860F971F281B390B60E3620FC801E5
:100410000E94B701C83E33E0D30778F19E013695BC
:1004200027953695279536952795A5ECB0E20E943D
:10043000DE06AC01529542954F7045275F70452707
:100440009A01ADECBCEC0E94DE06969587959695D8
:10045000879596958795BC01660F771F880F991F22
:10046000880F991F880F991F860F971F281B390B1C
:1004700060E3620FC8010E94B701C436D10548F19C
:100480009E013695279536952795ABE7B4E10E94F6
:10049000DE06AC01569547959A01ADECBCEC0E9486
:1004A000DE06969587959695879596958795BC01D6
:1004B000660F771F880F991F880F991F880F991F44
:1004C000860F971F281B390B60E3620FC8010E943B
:1004D000B701CA30D10538F19E01ADECBCEC0E94E9
:1004E000DE06AC0156954795569547955695479526
:1004F0009A010E94DE069695879596958795969522
:100500008795BC01660F771F880F991F880F991F69
:10051000880F991F860F971F281B390B60E3620F06
:10052000C8010E94B7019E01ADECBCEC0E94DE0642
:10053000969587959695879596958795BC01660FB4
:10054000771F880F991F880F991F880F991F860F93
:10055000971F281B390B60E3620FC8010E94B70187
:10056000DF91CF911F910F910895CF93DF93EC010D
:100570000E94D101CE010E94BA01DF91CF9108956E
:10058000CF93DF93FC01E35FFD4F3081EC01AB853E
:10059000BC852C91DC01A30FB11D1D962C9380818D
:1005A0008F5F8083DF91CF910895CF93DF93FC011C
:1005B000E15FFD4F308131962081321791F0DC01EF
:1005C0001B96CD91DC911C97DF012081820F911D3C
:1005D000FC01E35FFE4F808188838C918F5F8C9359
:1005E00008C0DC011796ED91FC91189780818F7DF2
:1005F0008083DF91CF910895AF92BF92CF92DF9227
:10060000EF92FF920F931F93CF93DF93EC015B0167
:100610000197C9F46F3F7F4FB1F40F2EF6ECCF2E48
:10062000D12CF02D0F2EF2ECEF2EF12CF02D01EC51
:1006300010E020EC30E044EC50E065EC70E087E244
:1006400091E00E942301CD2B39F4AB20A09421F43A
:1006500087E291E00E943D01DF91CF911F910F91C0
:10066000FF90EF90DF90CF90BF90AF9008951F92D2
:100670000F920FB60F9211242F933F934F935F93D6
:100680006F937F938F939F93AF93BF93EF93FF935A
:1006900087E291E00E94C002FF91EF91BF91AF917C
:1006A0009F918F917F916F915F914F913F912F918A
:1006B0000F900FBE0F901F9018951F920F920FB6BC
:1006C0000F9211242F933F934F935F936F937F93D8
:1006D0008F939F93AF93BF93EF93FF9387E291E044
:1006E0000E94D502FF91EF91BF91AF919F918F91A1
:1006F0007F916F915F914F913F912F910F900FBE1E
:100700000F901F9018956FEF7FEF81E090E00E94AF
:10071000FC0208956FEF7FEF80E090E00E94FC0202
:100720000895EAE7F0E08081887F8083603109F1F5
:1007300038F4643091F06830B1F0623089F507C068
:10074000603419F1603839F1603251F518C0EAE7C8
:10075000F0E08081816080830895EAE7F0E08081A5
:10076000826080830895EAE7F0E08081836080837F
:100770000895EAE7F0E08081846080830895EAE7E5
:10078000F0E08081856080830895EAE7F0E0808171
:10079000866080830895EAE7F0E080818760808347
:1007A0000895613051F018F0623071F00895ECE76F
:1007B000F0E080818F7380830895ECE7F0E0808122
:1007C0008F73806480830895ECE7F0E08081806C13
:1007D00080830895FC0160830895CF93DF93EC013B
:1007E00061E00E94D10360E8CE010E94910364E6BB
:1007F000CE010E94EA03EAE7F0E08081806880830E
:10080000DF91CF910895CF92DF92EF92FF92DC01BA
:10081000ECE7F0E08081807F6770682B608330E0D8
:10082000C12CD12C76012C91321798F4EAE7F0E034
:1008300090819064908390917A0094FFFCCF4091D6
:10084000780050917900C40ED51EE11CF11C3F5F69
:10085000EACF30E040E050E0C701B6010E94BC069C
:10086000C901FF90EF90DF90CF90089582E291E070
:100870000E94860088E393E00E94ED0340E052EC82
:1008800061E070E087E291E00E944B0160E071E07E
:1008900087E291E00E94BE0160E088E393E00E945D
:1008A0000304EC016CE071E087E291E00E94BE017C
:1008B000BE0187E291E00E94B50241E050E060E0B5
:1008C00070E082E291E00E94C500E6CF5058BB275D
:1008D000AA270E947E040C94C8050E94BA0538F02D
:1008E0000E94C10520F039F49F3F19F426F40C94BE
:1008F000B7050EF4E095E7FB0C94B105E92F0E94D3
:10090000D90558F3BA17620773078407950720F0D3
:1009100079F4A6F50C94FB050EF4E0950B2EBA2F96
:10092000A02D0B01B90190010C01CA01A0011124F5
:10093000FF27591B99F0593F50F4503E68F11A16A1
:10094000F040A22F232F342F4427585FF3CF469532
:1009500037952795A795F0405395C9F77EF41F1654
:10096000BA0B620B730B840BBAF09150A1F0FF0F1E
:10097000BB1F661F771F881FC2F70EC0BA0F621F0A
:10098000731F841F48F4879577956795B795F795FA
:100990009E3F08F0B0CF9395880F08F09927EE0F8F
:1009A0009795879508950E94E7040C94C8050E94C6
:1009B000C10558F00E94BA0540F029F45F3F29F0C4
:1009C0000C94B10551110C94FC050C94B7050E94D0
:1009D000D90568F39923B1F3552391F3951B550B72
:1009E000BB27AA2762177307840738F09F5F5F4F02
:1009F000220F331F441FAA1FA9F335D00E2E3AF041
:100A0000E0E832D091505040E695001CCAF72BD058
:100A1000FE2F29D0660F771F881FBB1F26173707A9
:100A20004807AB07B0E809F0BB0B802DBF01FF27DB
:100A300093585F4F3AF09E3F510578F00C94B10502
:100A40000C94FC055F3FE4F3983ED4F386957795CC
:100A50006795B795F7959F5FC9F7880F911D969594
:100A6000879597F90895E1E0660F771F881FBB1FF0
:100A7000621773078407BA0720F0621B730B840B9D
:100A8000BA0BEE1F88F7E09508950E94E10588F003
:100A90009F5798F0B92F9927B751B0F0E1F0660F42
:100AA000771F881F991F1AF0BA95C9F714C0B13083
:100AB00091F00E94FB05B1E008950C94FB05672FAF
:100AC000782F8827B85F39F0B93FCCF386957795B2
:100AD0006795B395D9F73EF490958095709561959B
:100AE0007F4F8F4F9F4F0895E89409C097FB3EF4C6
:100AF00090958095709561957F4F8F4F9F4F99236B
:100B0000A9F0F92F96E9BB279395F69587957795E8
:100B10006795B795F111F8CFFAF4BB0F11F460FFA8
:100B20001BC06F5F7F4F8F4F9F4F16C0882311F000
:100B300096E911C0772321F09EE8872F762F05C014
:100B4000662371F096E8862F70E060E02AF09A95AF
:100B5000660F771F881FDAF7880F9695879597F9A4
:100B6000089597F99F6780E870E060E008959FEF2F
:100B700080EC089500240A94161617061806090634
:100B8000089500240A941216130614060506089503
:100B9000092E0394000C11F4882352F0BB0F40F48B
:100BA000BF2B11F460FF04C06F5F7F4F8F4F9F4FCB
:100BB000089557FD9058440F551F59F05F3F71F04D
:100BC0004795880F97FB991F61F09F3F79F08795B4
:100BD0000895121613061406551FF2CF4695F1DF3D
:100BE00008C0161617061806991FF1CF86957105CD
:100BF000610508940895E894BB2766277727CB0101
:100C000097F908950E9415060C94C8050E94BA052C
:100C100038F00E94C10520F0952311F00C94B10525
:100C20000C94B70511240C94FC050E94D90570F3AF
:100C3000959FC1F3950F50E0551F629FF001729F81
:100C4000BB27F00DB11D639FAA27F00DB11DAA1F90
:100C5000649F6627B00DA11D661F829F2227B00DDD
:100C6000A11D621F739FB00DA11D621F839FA00D68
:100C7000611D221F749F3327A00D611D231F849FB8
:100C8000600D211D822F762F6A2F11249F5750400F
:100C90009AF0F1F088234AF0EE0FFF1FBB1F661F8A
:100CA000771F881F91505040A9F79E3F510580F053
:100CB0000C94B1050C94FC055F3FE4F3983ED4F32B
:100CC000869577956795B795F795E7959F5FC1F7F7
:100CD000FE2B880F911D9695879597F908950E9490
:100CE000E105E8F09E37E8F09639B8F49E3848F40C
:100CF000672F782F8827985FF9CF86957795679526
:100D000093959539D0F3B62FB1706B0F711D811D7E
:100D100020F487957795679593950C9493060C949A
:100D2000AE060C94FC05882371F4772321F09850CB
:100D3000872B762F07C0662311F499270DC0905199
:100D4000862B70E060E02AF09A95660F771F881F67
:100D5000DAF7880F9695879597F908959F3F31F0B8
:100D6000915020F4879577956795B795880F911DD9
:100D70009695879597F90895A1E21A2EAA1BBB1B99
:100D8000FD010DC0AA1FBB1FEE1FFF1FA217B30757
:100D9000E407F50720F0A21BB30BE40BF50B661F6D
:100DA000771F881F991F1A9469F760957095809531
:100DB00090959B01AC01BD01CF010895A29FB001A8
:100DC000B39FC001A39F700D811D1124911DB29F7F
:100DD000700D811D1124911D0895EE0FFF1F0590C8
:100DE000F491E02D099410E0CBE5D0E004C0FE01C1
:100DF0000E94ED062196CC35D107C9F7F894FFCFB4
:100E0000414443202D2044656D6F0A004144432036
:100E10006368616E6E656C20302076616C75653A32
:020E20002000B0
:00000001FF
