:100000000C9442000C946A000C946A000C946A00F0
:100010000C946A000C946A000C946A000C946A00B8
:100020000C946A000C946A000C946A000C946A00A8
:100030000C946A000C946A000C9408010C946A00F9
:100040000C946A000C946A000C9472020C9499024D
:100050000C946A000C946A000C946A000C946A0078
:100060000C946A000C946A004144432044656D6F0F
:1000700020436F64650A0A002C01CE021504330187
:10008000D5021C0411241FBECFEFD8E0DEBFCDBFC8
:1000900011E0A0E0B1E0E6E4F6E102C005900D92C7
:1000A000A632B107D9F721E0A6E2B1E001C01D9266
:1000B000AB35B207E1F710E0CFE3D0E004C0219701
:1000C000FE010E94D806CC33D107C9F70E94230451
:1000D0000C94160B0C940000EF92FF920F931F9359
:1000E000FC01768365835087478332872187148795
:1000F0000387F686E5861F910F91FF90EF90089594
:10010000EF92FF920F931F930197A1F46F3F7F4FE0
:1001100089F40F2EF6E4EF2EF12CF02D07E410E019
:100120002EE630E045E450E064E470E086E291E0E1
:100130000E946C001F910F91FF90EF900895FC01B9
:10014000848181111FC0F89481E08823D1F081E07F
:100150008483A581B6818C9182608C93A781B085C0
:100160008C9182608C93A185B2858C9182608C93F6
:10017000A585B6851C92A385B48587EC8C9380E019
:10018000E4CF78940895FC018FB7F89491E0992317
:1001900031F0408151816281738190E0F8CF8FBF4F
:1001A000CB01BA0108950E94C30028EE33E040E07D
:1001B00050E00E94B606CA01B90108958F929F923D
:1001C000AF92BF92CF92DF92EF92FF92CF93DF93E5
:1001D000EC014A015B010E94D3006B017C01CE015E
:1001E0000E94D300DC01CB018C199D09AE09BF0927
:1001F00088159905AA05BB0590F3DF91CF91FF9073
:10020000EF90DF90CF90BF90AF909F908F90089528
:100210001F920F920FB60F9211248F939F93AF935B
:10022000BF93EF93FF93E6E2F1E080819181A28199
:10023000B3818C599F4FAF4FBF4F80839183A2836F
:10024000B383FF91EF91BF91AF919F918F910F90E9
:100250000FBE0F901F9018956FEF7FEF81E090E039
:100260000E94800008956FEF7FEF80E090E00E9491
:1002700080000895CF92DF92EF92FF920F931F9329
:10028000FC0176876587508B4787328B218B148BD7
:10029000038BF68AE58AD08EC78A1F910F91FF9053
:1002A000EF90DF90CF900895CF92DF92EF92FF9280
:1002B0000F931F930197C9F46F3F7F4FB1F40F2E37
:1002C000F6ECCF2ED12CF02D0F2EF2ECEF2EF12CE0
:1002D000F02D01EC10E020EC30E044EC50E065EC57
:1002E00070E085E391E00E943A011F910F91FF9029
:1002F000EF90DF90CF900895CF92DF92EF92FF9230
:100300000F931F93CF93DF93FC01248521116AC0C3
:10031000EC0181E08487CB01BA010E94970520E0BF
:1003200030E040E851E40E9449069B01AC0160E0E6
:1003300074E284E79BE40E94EF0420E030E040E8B0
:100340005FE30E947D046B017C0120E030E0A901A5
:100350000E94EA0488236CF420E030E040E05FE390
:10036000C701B6010E947D040E946105062F172F68
:100370000CC020E030E040E05FE3C701B6010E941E
:100380007E040E946105062F172F61E070E080E077
:1003900091E00E94DE069983888361E070E080E04E
:1003A00091E00E94DE069F838E838FEF90E09B8317
:1003B0008A8399878887F89481E0882391F0ED8576
:1003C000FE851083EF85F8890083ED89FE898081A1
:1003D00086608083EB89FC8980818869808380E0E6
:1003E000ECCF7894DF91CF911F910F91FF90EF9018
:1003F000DF90CF900895FC0182858F5F90858923DF
:1004000093858917E9F38287A681B7818285A80F32
:10041000B11D6C930388F489E02D80818062808314
:1004200008950F931F93CF93DF938C01EB016881A5
:10043000662329F02196C8010E94FB01F8CFDF91C5
:10044000CF911F910F9108950F931F93CF93DF9337
:10045000CDB7DEB7DA950FB6F894DEBF0FBECDBFCD
:100460008E010F5F1F4F80E091E0F8019C01119217
:1004700021503040E1F79E01255F3E4FC75FDE4FC0
:1004800048815981C950D14060E071E0C8010E94A3
:100490002208B801C95FDE4F88819981C750D140D9
:1004A0000E941102D3950FB6F894DEBF0FBECDBFE8
:1004B000DF91CF911F910F9108950F931F93CF93C9
:1004C000DF938C01EB01FE018491882331F02196AA
:1004D0006491C8010E94FB01F6CFDF91CF911F917B
:1004E0000F9108951F920F920FB60F9211248F93C0
:1004F0009F93AF93BF93EF93FF93E5E3F1E0848184
:1005000092818F5F89238483A081B1818481A80F28
:10051000B11D0788F08DE02D80818C93FF91EF91C4
:10052000BF91AF919F918F910F900FBE0F901F9031
:1005300018951F920F920FB60F9211242F938F933D
:100540009F93AF93BF93EF93FF93E5E3F1E0928521
:100550008385981781F0838590858F5F89238387B2
:10056000A789B08D868197812385FC01E20FF11D5B
:1005700080818C9307C0E0914801F091490180810E
:100580008F7D8083FF91EF91BF91AF919F918F916C
:100590002F910F900FBE0F901F9018956FEF7FEF68
:1005A00081E090E00E94540108956FEF7FEF80E0BA
:1005B00090E00E94540108950F931F93FC017283F1
:1005C00061835483438336832583108707831F9178
:1005D0000F9108950F931F93019779F46F3F7F4F09
:1005E00061F40CE710E02BE730E04AE750E068E701
:1005F00070E08EE491E00E94DC021F910F9108955B
:10060000DC011396ED91FC9114979081987F908373
:10061000603141F140F46430A9F06830D9F06230C3
:1006200009F03FC007C0603469F1603899F1603269
:10063000C1F520C01396ED91FC91149780818160E3
:10064000808308951396ED91FC91149780818260C8
:10065000808308951396ED91FC91149780818360B7
:10066000808308951396ED91FC91149780818460A6
:10067000808308951396ED91FC9114978081856095
:10068000808308951396ED91FC9114978081866084
:10069000808308951396ED91FC9114978081876073
:1006A00080830895DC011796ED91FC911897908155
:1006B0009F739083613019F0623049F00895179666
:1006C000ED91FC911897808180648083089517963E
:1006D000ED91FC9118978081806C80830895FC01D6
:1006E00060830895CF93DF93EC0161E00E94520391
:1006F00060E8CE010E94000364E6CE010E946F0311
:10070000EB81FC81808180688083DF91CF910895A7
:10071000CF92DF92EF92FF92DC0185E2689F912DEC
:100720001124862F891B8695890F86958695982F8B
:10073000990F990F990F981B691B862F1796ED91AA
:10074000FC9118979081907F892B808330E0C12C99
:10075000D12C76012C913217D0F41396ED91FC91A7
:1007600014978081806480831396ED91FC91149797
:10077000908194FFF9CF1196ED91FC9112978081B1
:100780009181C80ED91EE11CF11C3F5FE3CF30E020
:1007900040E050E0C701B6010E94B606C901FF90D3
:1007A000EF90DF90CF900895CF92DF92EF92FF927B
:1007B000DC011796ED91FC9118978081807F8E6007
:1007C000808330E0C12CD12C76012C913217D0F4EB
:1007D0001396ED91FC911497808180648083139629
:1007E000ED91FC911497908194FFF9CF1196ED91C2
:1007F000FC91129780819181C80ED91EE11CF11CD9
:100800003F5FE3CF30E040E050E0C701B6010E9417
:10081000B60664EB7BE281E190E00E94B606C90176
:10082000FF90EF90DF90CF9008956FEF7FEF81E022
:1008300090E00E94EA0208956FEF7FEF80E090E081
:100840000E94EA02089540E855E260E070E085E326
:1008500091E00E947C0186E291E00E949F0068E6A0
:1008600070E085E391E00E945D028EE491E00E94D9
:100870007203C0E0C730E8F46C2F8EE491E00E9470
:1008800088039F938F931F92CF9386E091E09F936D
:100890008F9385E391E09F938F930E942402CF5F13
:1008A0008DB79EB708960FB6F8949EBF0FBE8DBF4A
:1008B000E1CF8EE491E00E94D4039F938F9388E16F
:1008C00091E09F938F9385E391E09F938F930E9494
:1008D00024026AE085E391E00E94FB0148EE53E0C8
:1008E00060E070E086E291E00E94DE000F900F90E1
:1008F0000F900F900F900F90BCCF5058BB27AA2796
:100900000E9495040C940F060E94010638F00E9484
:10091000080620F039F49F3F19F426F40C94FE05E4
:100920000EF4E095E7FB0C94F805E92F0E942006F1
:1009300058F3BA17620773078407950720F079F414
:10094000A6F50C9442060EF4E0950B2EBA2FA02DBE
:100950000B01B90190010C01CA01A0011124FF276C
:10096000591B99F0593F50F4503E68F11A16F04067
:10097000A22F232F342F4427585FF3CF4695379566
:100980002795A795F0405395C9F77EF41F16BA0B2B
:10099000620B730B840BBAF09150A1F0FF0FBB1FD9
:1009A000661F771F881FC2F70EC0BA0F621F731F22
:1009B000841F48F4879577956795B795F7959E3F7F
:1009C00008F0B0CF9395880F08F09927EE0F979510
:1009D000879508950E94D40508F481E008950E9447
:1009E00003050C940F060E94080658F00E940106A9
:1009F00040F029F45F3F29F00C94F80551110C9454
:100A000043060C94FE050E94200668F39923B1F377
:100A1000552391F3951B550BBB27AA276217730724
:100A2000840738F09F5F5F4F220F331F441FAA1FB8
:100A3000A9F335D00E2E3AF0E0E832D09150504074
:100A4000E695001CCAF72BD0FE2F29D0660F771F22
:100A5000881FBB1F261737074807AB07B0E809F008
:100A6000BB0B802DBF01FF2793585F4F3AF09E3F8D
:100A7000510578F00C94F8050C9443065F3FE4F3BD
:100A8000983ED4F3869577956795B795F7959F5FD0
:100A9000C9F7880F911D9695879597F90895E1E01C
:100AA000660F771F881FBB1F621773078407BA077B
:100AB00020F0621B730B840BBA0BEE1F88F7E095D6
:100AC00008950E9468056894B1110C944306089536
:100AD0000E94280688F09F5798F0B92F9927B751A0
:100AE000B0F0E1F0660F771F881F991F1AF0BA95D2
:100AF000C9F714C0B13091F00E944206B1E00895E8
:100B00000C944206672F782F8827B85F39F0B93FD9
:100B1000CCF3869577956795B395D9F73EF4909584
:100B20008095709561957F4F8F4F9F4F0895E89402
:100B300009C097FB3EF490958095709561957F4F25
:100B40008F4F9F4F9923A9F0F92F96E9BB279395D3
:100B5000F695879577956795B795F111F8CFFAF4E3
:100B6000BB0F11F460FF1BC06F5F7F4F8F4F9F4F14
:100B700016C0882311F096E911C0772321F09EE872
:100B8000872F762F05C0662371F096E8862F70E0D8
:100B900060E02AF09A95660F771F881FDAF7880FB2
:100BA0009695879597F90895990F0008550FAA0B08
:100BB000E0E8FEEF16161706E807F907C0F0121670
:100BC0001306E407F50798F0621B730B840B950B73
:100BD00039F40A2661F0232B242B252B21F40895C8
:100BE0000A2609F4A140A6958FEF811D811D089565
:100BF00097F99F6780E870E060E008959FEF80ECD0
:100C0000089500240A941616170618060906089572
:100C100000240A9412161306140605060895092ED8
:100C20000394000C11F4882352F0BB0F40F4BF2B47
:100C300011F460FF04C06F5F7F4F8F4F9F4F089587
:100C400057FD9058440F551F59F05F3F71F047957D
:100C5000880F97FB991F61F09F3F79F08795089562
:100C6000121613061406551FF2CF4695F1DF08C081
:100C7000161617061806991FF1CF8695710561059E
:100C800008940895E894BB2766277727CB0197F946
:100C900008950E945C060C940F060E94010638F02D
:100CA0000E94080620F0952311F00C94F8050C948E
:100CB000FE0511240C9443060E94200670F3959FB4
:100CC000C1F3950F50E0551F629FF001729FBB2743
:100CD000F00DB11D639FAA27F00DB11DAA1F649FDF
:100CE0006627B00DA11D661F829F2227B00DA11D92
:100CF000621F739FB00DA11D621F839FA00D611D18
:100D0000221F749F3327A00D611D231F849F600D38
:100D1000211D822F762F6A2F11249F5750409AF061
:100D2000F1F088234AF0EE0FFF1FBB1F661F771FED
:100D3000881F91505040A9F79E3F510580F00C94B8
:100D4000F8050C9443065F3FE4F3983ED4F3869590
:100D500077956795B795F795E7959F5FC1F7FE2B58
:100D6000880F911D9695879597F90895A1E21A2EFF
:100D7000AA1BBB1BFD010DC0AA1FBB1FEE1FFF1F3F
:100D8000A217B307E407F50720F0A21BB30BE40B8F
:100D9000F50B661F771F881F991F1A9469F76095D6
:100DA0007095809590959B01AC01BD01CF01089590
:100DB000EE0FFF1F0590F491E02D09940F931F9300
:100DC000CF93DF93869F8001879F100D969F100D14
:100DD0001124C8010E94FA06EC01009729F0A8012D
:100DE00060E070E00E941B08CE01DF91CF911F915F
:100DF0000F9108950F931F93CF93DF938230910546
:100E000010F482E090E0E0915901F0915A0120E065
:100E100030E0A0E0B0E0309719F1408151810281CB
:100E2000138148175907C8F08417950769F410977C
:100E300031F012960C93129713961C9327C00093CF
:100E4000590110935A0122C02115310519F042179A
:100E5000530718F49A01BD01EF01DF01F801DBCF60
:100E600021153105F9F0281B390B2430310580F4A8
:100E70008A819B816115710521F0FB019383828337
:100E800004C090935A0180935901FE01329644C0E8
:100E9000FE01E20FF31F81939193225031093983B0
:100EA00028833AC02091570130915801232B41F4F7
:100EB0002091020130910301309358012093570192
:100EC00020910001309101012115310541F42DB728
:100ED0003EB74091040150910501241B350BE09170
:100EE0005701F0915801E217F307A0F42E1B3F0BB6
:100EF0002817390778F0AC014E5F5F4F241735078C
:100F000048F04E0F5F1F5093580140935701819353
:100F1000919302C0E0E0F0E0CF01DF91CF911F910B
:100F20000F910895CF93DF93009709F481C0FC01DE
:100F3000329713821282A0915901B0915A011097F1
:100F400081F420813181820F931F209157013091CC
:100F500058012817390751F5F0935801E0935701CC
:100F600067C0ED0120E030E0CE17DF0740F44A8192
:100F70005B819E0141155105F1F0EA01F5CFD38364
:100F8000C28340815181840F951FC817D90759F436
:100F900088819981840F951F0296918380838A812D
:100FA0009B81938382832115310529F4F0935A01A3
:100FB000E09359013DC0E901FB83EA8349915991CE
:100FC000C40FD51FEC17FD0761F480819181840F58
:100FD000951F0296E90199838883828193819B837F
:100FE0008A83E0E0F0E012968D919C911397009730
:100FF00019F0FD01DC01F7CF8D919C9111979D01B6
:101000002E5F3F4F820F931F20915701309158015F
:101010002817390769F4309729F410925A01109271
:10102000590102C013821282B0935801A093570154
:10103000DF91CF910895DC0101C06D934150504084
:10104000E0F70895AEE0B0E0E8E2F8E00C94ED0AD5
:101050008C01FA0186E08C831A83098377FF02C032
:1010600060E070E8CB0101979E838D83A901BF01E9
:10107000CE0101960E944E084D815E8157FD0AC047
:101080002F813885421753070CF49A01F801E20FBB
:10109000F31F10822E96E4E00C94090BABE0B0E055
:1010A000E4E5F8E00C94DF0A6C017B018A01FC01A5
:1010B00017821682838181FFCCC1CE0101963C014B
:1010C000F6019381F70193FD859193FF81917F0153
:1010D000882309F4BAC1853239F493FD859193FFD1
:1010E00081917F01853229F4B60190E00E94450A82
:1010F000E7CF912C212C312CFFE1F315D8F08B3266
:1011000079F038F4803279F08332A1F4232D206114
:101110001DC08D3261F0803369F4232D216016C02B
:10112000832D8260382EE32DE4603E2E2AC0F32DFD
:10113000F8601DC037FC2DC020ED280F2A3040F08C
:101140008E32B9F436FC81C1232D2064322E19C0B1
:1011500036FE06C08AE0989E200D1124922E11C002
:10116000EAE02E9E200D1124222EF32DF0623F2E58
:1011700008C08C3621F4832D8068382E02C0883652
:1011800041F4F70193FD859193FF81917F018111D6
:10119000B3CF982F9F7D9554933028F40C5F1F4F49
:1011A0009FE399830DC0833631F0833771F0833527
:1011B00009F059C021C0F801808189830E5F1F4F5B
:1011C00088248394912C530113C02801F2E04F0E20
:1011D000511CF801A080B18036FE03C0692D70E07B
:1011E00002C06FEF7FEFC5010E943A0A4C018201F5
:1011F000F32DFF773F2E16C0280122E0420E511C2E
:10120000F801A080B18036FE03C0692D70E002C0F5
:101210006FEF7FEFC5010E942F0A4C01F32DF0689C
:101220003F2E820133FC1BC0822D90E08816990668
:10123000B0F4B60180E290E00E94450A2A94F4CF0F
:10124000F50137FC859137FE81915F01B60190E091
:101250000E94450A21102A9421E0821A91088114E3
:10126000910471F7E8C0843611F0893641F5F80130
:1012700037FE07C060817181828193810C5F1F4FAF
:1012800008C060817181072E000C880B990B0E5FDE
:101290001F4FF32DFF763F2E97FF09C09095809545
:1012A000709561957F4F8F4F9F4FF0683F2E2AE0DA
:1012B00030E0A3010E94810A882E861845C0853738
:1012C00031F4232D2F7EB22E2AE030E025C0932D5D
:1012D000997FB92E8F36C1F018F4883579F0B5C0F2
:1012E000803719F0883721F0B0C0E92FE061BE2EB9
:1012F000B4FE0DC0FB2DF460BF2E09C034FE0AC041
:10130000292F2660B22E06C028E030E005C020E17B
:1013100030E002C020E132E0F801B7FE07C0608192
:101320007181828193810C5F1F4F06C06081718142
:1013300080E090E00E5F1F4FA3010E94810A882E7B
:101340008618FB2DFF773F2E36FE0DC0232D2E7FF6
:10135000A22E891458F434FE0BC032FC09C0832D30
:101360008E7EA82E05C0B82CA32C03C0B82C01C0BB
:10137000B92CA4FE0FC0FE01E80DF11D8081803361
:1013800021F49A2D997EA92E09C0A2FE06C0B3941D
:10139000B39404C08A2D867809F0B394A3FC11C0DD
:1013A000A0FE06C0B21488F4280C922C9B180EC024
:1013B000B21460F4B60180E290E00E94450AB39452
:1013C000F7CFB21418F42B1802C0982C212CA4FECD
:1013D00010C0B60180E390E00E94450AA2FE17C04B
:1013E000A1FC03C088E790E002C088E590E0B60168
:1013F0000CC08A2D867859F0A1FE02C08BE201C094
:1014000080E2A7FC8DE2B60190E00E94450A8914B3
:1014100038F4B60180E390E00E94450A9A94F7CF31
:101420008A94F301E80DF11D8081B60190E00E94DD
:10143000450A8110F5CF222009F442CEB60180E2A0
:1014400090E00E94450A2A94F6CFF60186819781A2
:1014500002C08FEF9FEF2B96E2E10C94FB0AFC0198
:101460000590615070400110D8F7809590958E0FCF
:101470009F1F0895FC016150704001900110D8F742
:10148000809590958E0F9F1F08950F931F93CF9374
:10149000DF93FB01238121FD03C08FEF9FEF2CC061
:1014A00022FF16C046815781248135814217530798
:1014B00044F4A081B1819D012F5F3F4F3183208390
:1014C0008C93268137812F5F3F4F3783268314C04B
:1014D0008B01EC01FB010084F185E02D0995892B3E
:1014E000E1F6D80116968D919C9117970196179663
:1014F0009C938E931697CE01DF91CF911F910F9100
:101500000895FA01AA27283051F1203181F1E89499
:101510006F936E7F6E5F7F4F8F4F9F4FAF4FB1E0E6
:101520003ED0B4E03CD0670F781F891F9A1FA11DE1
:10153000680F791F8A1F911DA11D6A0F711D811DE2
:10154000911DA11D20D009F468943F912AE0269FA7
:1015500011243019305D3193DEF6CF010895462F06
:101560004770405D4193B3E00FD0C9F7F6CF462FE7
:101570004F70405D4A3318F0495D31FD4052419350
:1015800002D0A9F7EACFB4E0A6959795879577950D
:101590006795BA95C9F700976105710508959B0194
:1015A000AC010A2E06945795479537952795BA951D
:1015B000C9F7620F731F841F951FA01D08952F92F6
:1015C0003F924F925F926F927F928F929F92AF92D3
:1015D000BF92CF92DF92EF92FF920F931F93CF9320
:1015E000DF93CDB7DEB7CA1BDB0B0FB6F894DEBFB7
:1015F0000FBECDBF09942A88398848885F846E84DD
:101600007D848C849B84AA84B984C884DF80EE8026
:10161000FD800C811B81AA81B981CE0FD11D0FB62F
:10162000F894DEBF0FBECDBFED01089510E0CFE30B
:10163000D0E004C0FE010E94D8062196C234D10732
:06164000C9F7F894FFCF8A
:1016460000005B0120004144435B256868755D200E
:1016560069733A2025640A005643432069733A2089
:0616660025646D560A0028
:00000001FF
