:100000000C943C000C9459000C9459000C94590029
:100010000C9459000C9459000C9459000C945900FC
:100020000C9459000C9459000C9459000C945900EC
:100030000C9459000C9459000C94BC000C94590079
:100040000C9459000C9459000C94A5010C94C20115
:100050000C9459000C9459000C9459000C945900BC
:100060000C9459000C9459004144432044656D6F31
:1000700020436F64650A0A0011241FBECFEFD8E049
:10008000DEBFCDBF11E0A0E0B1E0E4E0F1E102C0ED
:1000900005900D92A032B107D9F723E0A0E2B1E0BC
:1000A00001C01D92AA32B207E1F70E94D7020C9458
:1000B00080080C940000FC018081811116C0F89426
:1000C00081E0882389F081E0808394B5926094BDBB
:1000D00095B5926095BDAEE6B0E09C9192609C9320
:1000E00087EC87BD80E0EDCF789408952FB7F89422
:1000F00031E0332351F06091210170912201809110
:1001000023019091240130E0F4CF2FBF08950E9485
:10011000760028EE33E040E050E00E946A05CA0114
:10012000B90108958F929F92AF92BF92CF92DF92C2
:10013000EF92FF92CF93DF93EC014A015B010E94A3
:1001400087006B017C01CE010E948700DC01CB019E
:100150008C199D09AE09BF0988159905AA05BB052B
:1001600090F3DF91CF91FF90EF90DF90CF90BF9011
:10017000AF909F908F9008951F920F920FB60F929D
:1001800011248F939F93AF93BF93809121019091FE
:100190002201A0912301B09124018C599F4FAF4FB0
:1001A000BF4F8093210190932201A0932301B0932C
:1001B0002401BF91AF919F918F910F900FBE0F902F
:1001C0001F901895CF92DF92EF92FF92CB01BA0168
:1001D0000E944B0420E030E040E851E40E94FD041E
:1001E0009B01AC0160E074E284E79BE40E94A303FE
:1001F00020E030E040E85FE30E9431036B017C01C6
:1002000020E030E0A9010E949E0388235CF420E0F6
:1002100030E040E05FE3C701B6010E9431030E9475
:1002200015040AC020E030E040E05FE3C701B601FA
:100230000E9432030E9415047093C5006093C400AD
:10024000E2ECF0E0808186608083E1ECF0E0808188
:1002500088698083FF90EF90DF90CF900895909110
:1002600027019F5F809126019817E1F39093270162
:10027000E0912701F0E0E75DFE4F6083E1ECF0E004
:1002800080818062808308950F931F93CF93DF93C3
:100290008C01EB016881662329F02196C8010E9438
:1002A0002F01F8CFDF91CF911F910F9108950F93F8
:1002B0001F93CF93DF93CDB7DEB7DA950FB6F894DF
:1002C000DEBF0FBECDBF8E010F5F1F4F80E091E0FC
:1002D000F8019C01119221503040E1F79E01255F09
:1002E0003E4FC75FDE4F48815981C950D14060E021
:1002F00071E0C8010E948C05B801C95FDE4F88819A
:100300009981C750D1400E944401D3950FB6F8940B
:10031000DEBF0FBECDBFDF91CF911F910F9108952A
:100320000F931F93CF93DF938C01EB01FE01849118
:10033000882331F021966491C8010E942F01F6CFE5
:10034000DF91CF911F910F9108951F920F920FB6D9
:100350000F9211248F93EF93FF93809128018F5F69
:1003600080932801E0912801F0E08091C600E75DCC
:10037000FD4F8083FF91EF918F910F900FBE0F90F3
:100380001F9018951F920F920FB60F9211248F9302
:100390009F93EF93FF9390912701809126019817E7
:1003A00071F0809126018F5F80932601E0912601F4
:1003B000F0E0E75DFE4F80818093C60005C0E1EC70
:1003C000F0E080818F7D8083FF91EF919F918F91ED
:1003D0000F900FBE0F901F901895EAE7F0E0808114
:1003E000887F8083603109F138F4643091F068309F
:1003F000B1F0623089F507C0603419F1603839F125
:10040000603251F518C0EAE7F0E0808181608083B6
:100410000895EAE7F0E08081826080830895EAE74A
:10042000F0E08081836080830895EAE7F0E08081D6
:10043000846080830895EAE7F0E0808185608083AE
:100440000895EAE7F0E08081866080830895EAE716
:10045000F0E08081876080830895ECE7F0E08081A0
:100460008F738083613019F0623039F00895ECE7C2
:10047000F0E08081806480830895ECE7F0E0808183
:10048000806C80830895FC0160830895CF93DF938F
:10049000EC0161E00E942D0260E8CE010E94ED01B6
:1004A00064E6CE010E944302EAE7F0E080818068C2
:1004B0008083DF91CF910895CF92DF92EF92FF92E8
:1004C000DC0185E2689F912D1124862F891B86957A
:1004D000890F86958695982F990F990F990F981BDC
:1004E000691B862FECE7F0E09081907F892B808359
:1004F00030E0C12CD12C76012C91321798F4EAE728
:10050000F0E090819064908390917A0094FFFCCF0A
:100510004091780050917900C40ED51EE11CF11C69
:100520003F5FEACF30E040E050E0C701B6010E94F3
:100530006A05C901FF90EF90DF90CF900895CF92A8
:10054000DF92EF92FF92DC01ECE7F0E08081807FA8
:100550008E60808330E0C12CD12C76012C91321733
:1005600098F4EAE7F0E090819064908390917A00AB
:1005700094FFFCCF4091780050917900C40ED51EB5
:10058000E11CF11C3F5FEACF30E040E050E0C701E2
:10059000B6010E946A0564EB7BE281E190E00E9473
:1005A0006A05C901FF90EF90DF90CF90089540E871
:1005B00055E260E070E085E291E00E94E20080E2B6
:1005C00091E00E945B0068E670E085E291E00E94A5
:1005D000900189E293E00E944602C0E0C730E8F44F
:1005E0006C2F89E293E00E945C029F938F931F928D
:1005F000CF9380E091E09F938F9385E291E09F936A
:100600008F930E945701CF5F8DB79EB708960FB6A4
:10061000F8949EBF0FBE8DBFE1CF89E293E00E94A8
:100620009F029F938F9382E191E09F938F9385E246
:1006300091E09F938F930E9457016AE085E291E0D9
:100640000E942F0148EE53E060E070E080E291E00C
:100650000E9492000F900F900F900F900F900F90AC
:10066000BCCF5058BB27AA270E9449030C94C3044F
:100670000E94B50438F00E94BC0420F039F49F3F7A
:1006800019F426F40C94B2040EF4E095E7FB0C94F4
:10069000AC04E92F0E94D40458F3BA176207730719
:1006A0008407950720F079F4A6F50C94F6040EF46F
:1006B000E0950B2EBA2FA02D0B01B90190010C0172
:1006C000CA01A0011124FF27591B99F0593F50F48A
:1006D000503E68F11A16F040A22F232F342F4427E2
:1006E000585FF3CF469537952795A795F0405395DA
:1006F000C9F77EF41F16BA0B620B730B840BBAF0AA
:100700009150A1F0FF0FBB1F661F771F881FC2F714
:100710000EC0BA0F621F731F841F48F48795779528
:100720006795B795F7959E3F08F0B0CF9395880FE2
:1007300008F09927EE0F9795879508950E948804F1
:1007400008F481E008950E94B7030C94C3040E944A
:10075000BC0458F00E94B50440F029F45F3F29F032
:100760000C94AC0451110C94F7040C94B2040E9444
:10077000D40468F39923B1F3552391F3951B550BDA
:10078000BB27AA2762177307840738F09F5F5F4F64
:10079000220F331F441FAA1FA9F335D00E2E3AF0A3
:1007A000E0E832D091505040E695001CCAF72BD0BB
:1007B000FE2F29D0660F771F881FBB1F261737070C
:1007C0004807AB07B0E809F0BB0B802DBF01FF273E
:1007D00093585F4F3AF09E3F510578F00C94AC046B
:1007E0000C94F7045F3FE4F3983ED4F38695779535
:1007F0006795B795F7959F5FC9F7880F911D9695F7
:10080000879597F90895E1E0660F771F881FBB1F52
:10081000621773078407BA0720F0621B730B840BFF
:10082000BA0BEE1F88F7E09508950E941C046894A7
:10083000B1110C94F70408950E94DC0488F09F57CE
:1008400098F0B92F9927B751B0F0E1F0660F771FF4
:10085000881F991F1AF0BA95C9F714C0B13091F0EA
:100860000E94F604B1E008950C94F604672F782FE7
:100870008827B85F39F0B93FCCF3869577956795AF
:10088000B395D9F73EF490958095709561957F4F1B
:100890008F4F9F4F0895E89409C097FB3EF49095C1
:1008A0008095709561957F4F8F4F9F4F9923A9F049
:1008B000F92F96E9BB279395F695879577956795D8
:1008C000B795F111F8CFFAF4BB0F11F460FF1BC01C
:1008D0006F5F7F4F8F4F9F4F16C0882311F096E9AF
:1008E00011C0772321F09EE8872F762F05C066235D
:1008F00071F096E8862F70E060E02AF09A95660F16
:10090000771F881FDAF7880F9695879597F90895CE
:10091000990F0008550FAA0BE0E8FEEF1616170610
:10092000E807F907C0F012161306E407F50798F078
:10093000621B730B840B950B39F40A2661F0232B91
:10094000242B252B21F408950A2609F4A140A6950D
:100950008FEF811D811D089597F99F6780E870E0F2
:1009600060E008959FEF80EC089500240A94161625
:10097000170618060906089500240A94121613068D
:10098000140605060895092E0394000C11F488231B
:1009900052F0BB0F40F4BF2B11F460FF04C06F5F37
:1009A0007F4F8F4F9F4F089557FD9058440F551F0D
:1009B00059F05F3F71F04795880F97FB991F61F0E1
:1009C0009F3F79F087950895121613061406551F58
:1009D000F2CF4695F1DF08C0161617061806991FC4
:1009E000F1CF86957105610508940895E894BB27B9
:1009F00066277727CB0197F908950E9410050C947C
:100A0000C3040E94B50438F00E94BC0420F0952372
:100A100011F00C94AC040C94B20411240C94F7045F
:100A20000E94D40470F3959FC1F3950F50E0551FB9
:100A3000629FF001729FBB27F00DB11D639FAA2733
:100A4000F00DB11DAA1F649F6627B00DA11D661F82
:100A5000829F2227B00DA11D621F739FB00DA11DA3
:100A6000621F839FA00D611D221F749F3327A00D5D
:100A7000611D231F849F600D211D822F762F6A2FF9
:100A800011249F5750409AF0F1F088234AF0EE0F5E
:100A9000FF1FBB1F661F771F881F91505040A9F78B
:100AA0009E3F510580F00C94AC040C94F7045F3F1A
:100AB000E4F3983ED4F3869577956795B795F795C7
:100AC000E7959F5FC1F7FE2B880F911D969587953F
:100AD00097F90895A1E21A2EAA1BBB1BFD010DC0B8
:100AE000AA1FBB1FEE1FFF1FA217B307E407F507DE
:100AF00020F0A21BB30BE40BF50B661F771F881FBA
:100B0000991F1A9469F760957095809590959B014F
:100B1000AC01BD01CF010895AEE0B0E0E2E9F5E03F
:100B20000C9457088C01FA0186E08C831A830983A0
:100B300077FF02C060E070E8CB0101979E838D8350
:100B4000A901BF01CE0101960E94B8054D815E81C9
:100B500057FD0AC02F813885421753070CF49A01BC
:100B6000F801E20FF31F10822E96E4E00C94730854
:100B7000ABE0B0E0EEEBF5E00C9449086C017B01D2
:100B80008A01FC0117821682838181FFCCC1CE01CC
:100B900001963C01F6019381F70193FD859193FF46
:100BA00081917F01882309F4BAC1853239F493FD1C
:100BB000859193FF81917F01853229F4B60190E000
:100BC0000E94AF07E7CF912C212C312CFFE1F315C8
:100BD000D8F08B3279F038F4803279F08332A1F496
:100BE000232D20611DC08D3261F0803369F4232DE7
:100BF000216016C0832D8260382EE32DE4603E2EE6
:100C00002AC0F32DF8601DC037FC2DC020ED280F41
:100C10002A3040F08E32B9F436FC81C1232D206495
:100C2000322E19C036FE06C08AE0989E200D11248F
:100C3000922E11C0EAE02E9E200D1124222EF32DBB
:100C4000F0623F2E08C08C3621F4832D8068382E48
:100C500002C0883641F4F70193FD859193FF81919D
:100C60007F018111B3CF982F9F7D9554933028F445
:100C70000C5F1F4F9FE399830DC0833631F083379C
:100C800071F0833509F059C021C0F8018081898352
:100C90000E5F1F4F88248394912C530113C02801A9
:100CA000F2E04F0E511CF801A080B18036FE03C067
:100CB000692D70E002C06FEF7FEFC5010E94A407AD
:100CC0004C018201F32DFF773F2E16C0280122E050
:100CD000420E511CF801A080B18036FE03C0692D80
:100CE00070E002C06FEF7FEFC5010E9499074C01D1
:100CF000F32DF0683F2E820133FC1BC0822D90E063
:100D000088169906B0F4B60180E290E00E94AF0721
:100D10002A94F4CFF50137FC859137FE81915F016C
:100D2000B60190E00E94AF0721102A9421E0821AB8
:100D300091088114910471F7E8C0843611F0893666
:100D400041F5F80137FE07C060817181828193818E
:100D50000C5F1F4F08C060817181072E000C880B4B
:100D6000990B0E5F1F4FF32DFF763F2E97FF09C0A3
:100D700090958095709561957F4F8F4F9F4FF0684C
:100D80003F2E2AE030E0A3010E94EB07882E861850
:100D900045C0853731F4232D2F7EB22E2AE030E076
:100DA00025C0932D997FB92E8F36C1F018F4883560
:100DB00079F0B5C0803719F0883721F0B0C0E92F3D
:100DC000E061BE2EB4FE0DC0FB2DF460BF2E09C045
:100DD00034FE0AC0292F2660B22E06C028E030E07B
:100DE00005C020E130E002C020E132E0F801B7FEAA
:100DF00007C060817181828193810C5F1F4F06C0A3
:100E00006081718180E090E00E5F1F4FA3010E941E
:100E1000EB07882E8618FB2DFF773F2E36FE0DC080
:100E2000232D2E7FA22E891458F434FE0BC032FCE1
:100E300009C0832D8E7EA82E05C0B82CA32C03C01C
:100E4000B82C01C0B92CA4FE0FC0FE01E80DF11DA5
:100E50008081803321F49A2D997EA92E09C0A2FEAB
:100E600006C0B394B39404C08A2D867809F0B39475
:100E7000A3FC11C0A0FE06C0B21488F4280C922C6A
:100E80009B180EC0B21460F4B60180E290E00E949C
:100E9000AF07B394F7CFB21418F42B1802C0982CF4
:100EA000212CA4FE10C0B60180E390E00E94AF07A1
:100EB000A2FE17C0A1FC03C088E790E002C088E54D
:100EC00090E0B6010CC08A2D867859F0A1FE02C0D0
:100ED0008BE201C080E2A7FC8DE2B60190E00E94A7
:100EE000AF07891438F4B60180E390E00E94AF07A1
:100EF0009A94F7CF8A94F301E80DF11D8081B60131
:100F000090E00E94AF078110F5CF222009F442CE75
:100F1000B60180E290E00E94AF072A94F6CFF60176
:100F20008681978102C08FEF9FEF2B96E2E10C94B0
:100F30006508FC010590615070400110D8F780955C
:100F400090958E0F9F1F0895FC0161507040019095
:100F50000110D8F7809590958E0F9F1F08950F93DD
:100F60001F93CF93DF93FB01238121FD03C08FEFFC
:100F70009FEF2CC022FF16C0468157812481358106
:100F80004217530744F4A081B1819D012F5F3F4F69
:100F9000318320838C93268137812F5F3F4F3783A6
:100FA000268314C08B01EC01FB010084F185E02D48
:100FB0000995892BE1F6D80116968D919C9117978A
:100FC000019617969C938E931697CE01DF91CF9141
:100FD0001F910F910895FA01AA27283051F120316D
:100FE00081F1E8946F936E7F6E5F7F4F8F4F9F4FBD
:100FF000AF4FB1E03ED0B4E03CD0670F781F891FFF
:101000009A1FA11D680F791F8A1F911DA11D6A0FCC
:10101000711D811D911DA11D20D009F468943F917F
:101020002AE0269F11243019305D3193DEF6CF017E
:101030000895462F4770405D4193B3E00FD0C9F744
:10104000F6CF462F4F70405D4A3318F0495D31FDB1
:101050004052419302D0A9F7EACFB4E0A695979504
:10106000879577956795BA95C9F7009761057105DA
:1010700008959B01AC010A2E069457954795379524
:101080002795BA95C9F7620F731F841F951FA01D7E
:1010900008952F923F924F925F926F927F928F921C
:1010A0009F92AF92BF92CF92DF92EF92FF920F93F7
:1010B0001F93CF93DF93CDB7DEB7CA1BDB0B0FB601
:1010C000F894DEBF0FBECDBF09942A8839884888BE
:1010D0005F846E847D848C849B84AA84B984C88454
:1010E000DF80EE80FD800C811B81AA81B981CE0F4B
:1010F000D11D0FB6F894DEBF0FBECDBFED01089530
:04110000F894FFCF91
:101104004144435B256868755D2069733A20256412
:101114000A005643432069733A2025646D560A0039
:00000001FF
